{
  "_format": "hh-sol-artifact-1",
  "contractName": "MyToken",
  "sourceName": "contracts/ERC_20.sol",
  "abi": [
    {
      "inputs": [
        {
          "internalType": "uint256",
          "name": "_initialSupply",
          "type": "uint256"
        }
      ],
      "stateMutability": "nonpayable",
      "type": "constructor"
    },
    {
      "anonymous": false,
      "inputs": [
        {
          "indexed": true,
          "internalType": "address",
          "name": "owner",
          "type": "address"
        },
        {
          "indexed": true,
          "internalType": "address",
          "name": "spender",
          "type": "address"
        },
        {
          "indexed": false,
          "internalType": "uint256",
          "name": "value",
          "type": "uint256"
        }
      ],
      "name": "Approval",
      "type": "event"
    },
    {
      "anonymous": false,
      "inputs": [
        {
          "indexed": true,
          "internalType": "address",
          "name": "from",
          "type": "address"
        },
        {
          "indexed": true,
          "internalType": "address",
          "name": "to",
          "type": "address"
        },
        {
          "indexed": false,
          "internalType": "uint256",
          "name": "value",
          "type": "uint256"
        }
      ],
      "name": "Transfer",
      "type": "event"
    },
    {
      "inputs": [
        {
          "internalType": "address",
          "name": "",
          "type": "address"
        },
        {
          "internalType": "address",
          "name": "",
          "type": "address"
        }
      ],
      "name": "allowances",
      "outputs": [
        {
          "internalType": "uint256",
          "name": "",
          "type": "uint256"
        }
      ],
      "stateMutability": "view",
      "type": "function"
    },
    {
      "inputs": [
        {
          "internalType": "address",
          "name": "_spender",
          "type": "address"
        },
        {
          "internalType": "uint256",
          "name": "_value",
          "type": "uint256"
        }
      ],
      "name": "approve",
      "outputs": [
        {
          "internalType": "bool",
          "name": "success",
          "type": "bool"
        }
      ],
      "stateMutability": "nonpayable",
      "type": "function"
    },
    {
      "inputs": [
        {
          "internalType": "address",
          "name": "_owner",
          "type": "address"
        }
      ],
      "name": "balanceOf",
      "outputs": [
        {
          "internalType": "uint256",
          "name": "balance",
          "type": "uint256"
        }
      ],
      "stateMutability": "view",
      "type": "function"
    },
    {
      "inputs": [
        {
          "internalType": "address",
          "name": "",
          "type": "address"
        }
      ],
      "name": "balances",
      "outputs": [
        {
          "internalType": "uint256",
          "name": "",
          "type": "uint256"
        }
      ],
      "stateMutability": "view",
      "type": "function"
    },
    {
      "inputs": [],
      "name": "decimals",
      "outputs": [
        {
          "internalType": "uint8",
          "name": "",
          "type": "uint8"
        }
      ],
      "stateMutability": "view",
      "type": "function"
    },
    {
      "inputs": [],
      "name": "name",
      "outputs": [
        {
          "internalType": "string",
          "name": "",
          "type": "string"
        }
      ],
      "stateMutability": "view",
      "type": "function"
    },
    {
      "inputs": [],
      "name": "symbol",
      "outputs": [
        {
          "internalType": "string",
          "name": "",
          "type": "string"
        }
      ],
      "stateMutability": "view",
      "type": "function"
    },
    {
      "inputs": [],
      "name": "totalSupply",
      "outputs": [
        {
          "internalType": "uint256",
          "name": "",
          "type": "uint256"
        }
      ],
      "stateMutability": "view",
      "type": "function"
    },
    {
      "inputs": [
        {
          "internalType": "address",
          "name": "_to",
          "type": "address"
        },
        {
          "internalType": "uint256",
          "name": "_value",
          "type": "uint256"
        }
      ],
      "name": "transfer",
      "outputs": [
        {
          "internalType": "bool",
          "name": "success",
          "type": "bool"
        }
      ],
      "stateMutability": "nonpayable",
      "type": "function"
    },
    {
      "inputs": [
        {
          "internalType": "address",
          "name": "_from",
          "type": "address"
        },
        {
          "internalType": "address",
          "name": "_to",
          "type": "address"
        },
        {
          "internalType": "uint256",
          "name": "_value",
          "type": "uint256"
        }
      ],
      "name": "transferFrom",
      "outputs": [
        {
          "internalType": "bool",
          "name": "success",
          "type": "bool"
        }
      ],
      "stateMutability": "nonpayable",
      "type": "function"
    }
  ],
  "bytecode": "0x608060405234801561001057600080fd5b506040516116e93803806116e98339818101604052810190610032919061018f565b6040518060400160405280600781526020017f4d79546f6b656e00000000000000000000000000000000000000000000000000815250600090816100769190610402565b506040518060400160405280600381526020017f4d544b0000000000000000000000000000000000000000000000000000000000815250600190816100bb9190610402565b506012600260006101000a81548160ff021916908360ff160217905550600260009054906101000a900460ff1660ff16600a6100f79190610636565b816101029190610681565b600381905550600354600460003373ffffffffffffffffffffffffffffffffffffffff1673ffffffffffffffffffffffffffffffffffffffff16815260200190815260200160002081905550506106c3565b600080fd5b6000819050919050565b61016c81610159565b811461017757600080fd5b50565b60008151905061018981610163565b92915050565b6000602082840312156101a5576101a4610154565b5b60006101b38482850161017a565b91505092915050565b600081519050919050565b7f4e487b7100000000000000000000000000000000000000000000000000000000600052604160045260246000fd5b7f4e487b7100000000000000000000000000000000000000000000000000000000600052602260045260246000fd5b6000600282049050600182168061023d57607f821691505b6020821081036102505761024f6101f6565b5b50919050565b60008190508160005260206000209050919050565b60006020601f8301049050919050565b600082821b905092915050565b6000600883026102b87fffffffffffffffffffffffffffffffffffffffffffffffffffffffffffffffff8261027b565b6102c2868361027b565b95508019841693508086168417925050509392505050565b6000819050919050565b60006102ff6102fa6102f584610159565b6102da565b610159565b9050919050565b6000819050919050565b610319836102e4565b61032d61032582610306565b848454610288565b825550505050565b600090565b610342610335565b61034d818484610310565b505050565b5b818110156103715761036660008261033a565b600181019050610353565b5050565b601f8211156103b65761038781610256565b6103908461026b565b8101602085101561039f578190505b6103b36103ab8561026b565b830182610352565b50505b505050565b600082821c905092915050565b60006103d9600019846008026103bb565b1980831691505092915050565b60006103f283836103c8565b9150826002028217905092915050565b61040b826101bc565b67ffffffffffffffff811115610424576104236101c7565b5b61042e8254610225565b610439828285610375565b600060209050601f83116001811461046c576000841561045a578287015190505b61046485826103e6565b8655506104cc565b601f19841661047a86610256565b60005b828110156104a25784890151825560018201915060208501945060208101905061047d565b868310156104bf57848901516104bb601f8916826103c8565b8355505b6001600288020188555050505b505050505050565b7f4e487b7100000000000000000000000000000000000000000000000000000000600052601160045260246000fd5b60008160011c9050919050565b6000808291508390505b600185111561055a57808604811115610536576105356104d4565b5b60018516156105455780820291505b808102905061055385610503565b945061051a565b94509492505050565b600082610573576001905061062f565b81610581576000905061062f565b816001811461059757600281146105a1576105d0565b600191505061062f565b60ff8411156105b3576105b26104d4565b5b8360020a9150848211156105ca576105c96104d4565b5b5061062f565b5060208310610133831016604e8410600b84101617156106055782820a905083811115610600576105ff6104d4565b5b61062f565b6106128484846001610510565b92509050818404811115610629576106286104d4565b5b81810290505b9392505050565b600061064182610159565b915061064c83610159565b92506106797fffffffffffffffffffffffffffffffffffffffffffffffffffffffffffffffff8484610563565b905092915050565b600061068c82610159565b915061069783610159565b92508282026106a581610159565b915082820484148315176106bc576106bb6104d4565b5b5092915050565b611017806106d26000396000f3fe608060405234801561001057600080fd5b506004361061009e5760003560e01c8063313ce56711610066578063313ce5671461016f57806355b6ed5c1461018d57806370a08231146101bd57806395d89b41146101ed578063a9059cbb1461020b5761009e565b806306fdde03146100a3578063095ea7b3146100c157806318160ddd146100f157806323b872dd1461010f57806327e235e31461013f575b600080fd5b6100ab61023b565b6040516100b89190610b54565b60405180910390f35b6100db60048036038101906100d69190610c0f565b6102c9565b6040516100e89190610c6a565b60405180910390f35b6100f96103bb565b6040516101069190610c94565b60405180910390f35b61012960048036038101906101249190610caf565b6103c1565b6040516101369190610c6a565b60405180910390f35b61015960048036038101906101549190610d02565b610790565b6040516101669190610c94565b60405180910390f35b6101776107a8565b6040516101849190610d4b565b60405180910390f35b6101a760048036038101906101a29190610d66565b6107bb565b6040516101b49190610c94565b60405180910390f35b6101d760048036038101906101d29190610d02565b6107e0565b6040516101e49190610c94565b60405180910390f35b6101f5610829565b6040516102029190610b54565b60405180910390f35b61022560048036038101906102209190610c0f565b6108b7565b6040516102329190610c6a565b60405180910390f35b6000805461024890610dd5565b80601f016020809104026020016040519081016040528092919081815260200182805461027490610dd5565b80156102c15780601f10610296576101008083540402835291602001916102c1565b820191906000526020600020905b8154815290600101906020018083116102a457829003601f168201915b505050505081565b600081600560003373ffffffffffffffffffffffffffffffffffffffff1673ffffffffffffffffffffffffffffffffffffffff16815260200190815260200160002060008573ffffffffffffffffffffffffffffffffffffffff1673ffffffffffffffffffffffffffffffffffffffff168152602001908152602001600020819055508273ffffffffffffffffffffffffffffffffffffffff163373ffffffffffffffffffffffffffffffffffffffff167f8c5be1e5ebec7d5bd14f71427d1e84f3dd0314c0f7b2291e5b200ac8c7c3b925846040516103a99190610c94565b60405180910390a36001905092915050565b60035481565b60008073ffffffffffffffffffffffffffffffffffffffff168473ffffffffffffffffffffffffffffffffffffffff1603610431576040517f08c379a000000000000000000000000000000000000000000000000000000000815260040161042890610e52565b60405180910390fd5b600073ffffffffffffffffffffffffffffffffffffffff168373ffffffffffffffffffffffffffffffffffffffff16036104a0576040517f08c379a000000000000000000000000000000000000000000000000000000000815260040161049790610e52565b60405180910390fd5b81600460008673ffffffffffffffffffffffffffffffffffffffff1673ffffffffffffffffffffffffffffffffffffffff168152602001908152602001600020541015610522576040517f08c379a000000000000000000000000000000000000000000000000000000000815260040161051990610ebe565b60405180910390fd5b81600560008673ffffffffffffffffffffffffffffffffffffffff1673ffffffffffffffffffffffffffffffffffffffff16815260200190815260200160002060003373ffffffffffffffffffffffffffffffffffffffff1673ffffffffffffffffffffffffffffffffffffffff1681526020019081526020016000205410156105e1576040517f08c379a00000000000000000000000000000000000000000000000000000000081526004016105d890610f2a565b60405180910390fd5b81600460008673ffffffffffffffffffffffffffffffffffffffff1673ffffffffffffffffffffffffffffffffffffffff16815260200190815260200160002060008282546106309190610f79565b9250508190555081600460008573ffffffffffffffffffffffffffffffffffffffff1673ffffffffffffffffffffffffffffffffffffffff16815260200190815260200160002060008282546106869190610fad565b9250508190555081600560008673ffffffffffffffffffffffffffffffffffffffff1673ffffffffffffffffffffffffffffffffffffffff16815260200190815260200160002060003373ffffffffffffffffffffffffffffffffffffffff1673ffffffffffffffffffffffffffffffffffffffff16815260200190815260200160002060008282546107199190610f79565b925050819055508273ffffffffffffffffffffffffffffffffffffffff168473ffffffffffffffffffffffffffffffffffffffff167fddf252ad1be2c89b69c2b068fc378daa952ba7f163c4a11628f55a4df523b3ef8460405161077d9190610c94565b60405180910390a3600190509392505050565b60046020528060005260406000206000915090505481565b600260009054906101000a900460ff1681565b6005602052816000526040600020602052806000526040600020600091509150505481565b6000600460008373ffffffffffffffffffffffffffffffffffffffff1673ffffffffffffffffffffffffffffffffffffffff168152602001908152602001600020549050919050565b6001805461083690610dd5565b80601f016020809104026020016040519081016040528092919081815260200182805461086290610dd5565b80156108af5780601f10610884576101008083540402835291602001916108af565b820191906000526020600020905b81548152906001019060200180831161089257829003601f168201915b505050505081565b60008073ffffffffffffffffffffffffffffffffffffffff168373ffffffffffffffffffffffffffffffffffffffff1603610927576040517f08c379a000000000000000000000000000000000000000000000000000000000815260040161091e90610e52565b60405180910390fd5b81600460003373ffffffffffffffffffffffffffffffffffffffff1673ffffffffffffffffffffffffffffffffffffffff1681526020019081526020016000205410156109a9576040517f08c379a00000000000000000000000000000000000000000000000000000000081526004016109a090610ebe565b60405180910390fd5b81600460003373ffffffffffffffffffffffffffffffffffffffff1673ffffffffffffffffffffffffffffffffffffffff16815260200190815260200160002060008282546109f89190610f79565b9250508190555081600460008573ffffffffffffffffffffffffffffffffffffffff1673ffffffffffffffffffffffffffffffffffffffff1681526020019081526020016000206000828254610a4e9190610fad565b925050819055508273ffffffffffffffffffffffffffffffffffffffff163373ffffffffffffffffffffffffffffffffffffffff167fddf252ad1be2c89b69c2b068fc378daa952ba7f163c4a11628f55a4df523b3ef84604051610ab29190610c94565b60405180910390a36001905092915050565b600081519050919050565b600082825260208201905092915050565b60005b83811015610afe578082015181840152602081019050610ae3565b60008484015250505050565b6000601f19601f8301169050919050565b6000610b2682610ac4565b610b308185610acf565b9350610b40818560208601610ae0565b610b4981610b0a565b840191505092915050565b60006020820190508181036000830152610b6e8184610b1b565b905092915050565b600080fd5b600073ffffffffffffffffffffffffffffffffffffffff82169050919050565b6000610ba682610b7b565b9050919050565b610bb681610b9b565b8114610bc157600080fd5b50565b600081359050610bd381610bad565b92915050565b6000819050919050565b610bec81610bd9565b8114610bf757600080fd5b50565b600081359050610c0981610be3565b92915050565b60008060408385031215610c2657610c25610b76565b5b6000610c3485828601610bc4565b9250506020610c4585828601610bfa565b9150509250929050565b60008115159050919050565b610c6481610c4f565b82525050565b6000602082019050610c7f6000830184610c5b565b92915050565b610c8e81610bd9565b82525050565b6000602082019050610ca96000830184610c85565b92915050565b600080600060608486031215610cc857610cc7610b76565b5b6000610cd686828701610bc4565b9350506020610ce786828701610bc4565b9250506040610cf886828701610bfa565b9150509250925092565b600060208284031215610d1857610d17610b76565b5b6000610d2684828501610bc4565b91505092915050565b600060ff82169050919050565b610d4581610d2f565b82525050565b6000602082019050610d606000830184610d3c565b92915050565b60008060408385031215610d7d57610d7c610b76565b5b6000610d8b85828601610bc4565b9250506020610d9c85828601610bc4565b9150509250929050565b7f4e487b7100000000000000000000000000000000000000000000000000000000600052602260045260246000fd5b60006002820490506001821680610ded57607f821691505b602082108103610e0057610dff610da6565b5b50919050565b7f496e76616c696420616464726573730000000000000000000000000000000000600082015250565b6000610e3c600f83610acf565b9150610e4782610e06565b602082019050919050565b60006020820190508181036000830152610e6b81610e2f565b9050919050565b7f496e73756666696369656e742062616c616e6365000000000000000000000000600082015250565b6000610ea8601483610acf565b9150610eb382610e72565b602082019050919050565b60006020820190508181036000830152610ed781610e9b565b9050919050565b7f416c6c6f77616e63652065786365656465640000000000000000000000000000600082015250565b6000610f14601283610acf565b9150610f1f82610ede565b602082019050919050565b60006020820190508181036000830152610f4381610f07565b9050919050565b7f4e487b7100000000000000000000000000000000000000000000000000000000600052601160045260246000fd5b6000610f8482610bd9565b9150610f8f83610bd9565b9250828203905081811115610fa757610fa6610f4a565b5b92915050565b6000610fb882610bd9565b9150610fc383610bd9565b9250828201905080821115610fdb57610fda610f4a565b5b9291505056fea26469706673582212202cf5c1b33f915d9450637833c5f064e859ea920b009a7d87252fb3f7be1394ee64736f6c634300081b0033",
  "linkReferences": {},
  "deployedLinkReferences": {}
}